{
  "transactions": [
    {
      "hash": "0x4f88fba7940f32fd844aa34e3b2c6efce2a23263ee32e7c32aa13a943388de5e",
      "transactionType": "CALL",
      "contractName": null,
      "contractAddress": "0xe71eae89dd7b325d5998c82d48d71ff7a4c8e322",
      "function": "approve(address,uint256)",
      "arguments": [
        "0xac77B823b58873572937a01b3E0CB9C417Cf637E",
        "10000000000000000000"
      ],
      "transaction": {
        "from": "0x081691e61060b24d3e828fce6a451706691f2820",
        "to": "0xe71eae89dd7b325d5998c82d48d71ff7a4c8e322",
        "gas": "0x2034e",
        "value": "0x0",
        "input": "0x095ea7b3000000000000000000000000ac77b823b58873572937a01b3e0cb9c417cf637e0000000000000000000000000000000000000000000000008ac7230489e80000",
        "nonce": "0xc",
        "chainId": "0x507"
      },
      "additionalContracts": [],
      "isFixedGasLimit": false
    },
    {
      "hash": "0xe107eebc05a568d2f61a97c0bcc19d2222866d0a30dbba7bbb6cad5c6813ea2c",
      "transactionType": "CALL",
      "contractName": null,
      "contractAddress": "0xac77b823b58873572937a01b3e0cb9c417cf637e",
      "function": "depositCollateral(uint256)",
      "arguments": [
        "10000000000000000000"
      ],
      "transaction": {
        "from": "0x081691e61060b24d3e828fce6a451706691f2820",
        "to": "0xac77b823b58873572937a01b3e0cb9c417cf637e",
        "gas": "0x1cfe6",
        "value": "0x0",
        "input": "0xbad4a01f0000000000000000000000000000000000000000000000008ac7230489e80000",
        "nonce": "0xd",
        "chainId": "0x507"
      },
      "additionalContracts": [],
      "isFixedGasLimit": false
    },
    {
      "hash": "0x65bd2e5b76e4f63381761a28a5f7246367f0507b0337a85620a3210cd66d470b",
      "transactionType": "CALL",
      "contractName": null,
      "contractAddress": "0xbe5d45a7c0709bab9e51337c991dabcb97c6d1ef",
      "function": "approve(address,uint256)",
      "arguments": [
        "0xac77B823b58873572937a01b3E0CB9C417Cf637E",
        "100000000"
      ],
      "transaction": {
        "from": "0x081691e61060b24d3e828fce6a451706691f2820",
        "to": "0xbe5d45a7c0709bab9e51337c991dabcb97c6d1ef",
        "gas": "0xecfd",
        "value": "0x0",
        "input": "0x095ea7b3000000000000000000000000ac77b823b58873572937a01b3e0cb9c417cf637e0000000000000000000000000000000000000000000000000000000005f5e100",
        "nonce": "0xe",
        "chainId": "0x507"
      },
      "additionalContracts": [],
      "isFixedGasLimit": false
    },
    {
      "hash": "0xad7bc3b87e33d96abe9d359fac40eebb6755ea1c58dfc3cb563f7be5e75bbd21",
      "transactionType": "CALL",
      "contractName": null,
      "contractAddress": "0xac77b823b58873572937a01b3e0cb9c417cf637e",
      "function": "deposit(uint256)",
      "arguments": [
        "100000000"
      ],
      "transaction": {
        "from": "0x081691e61060b24d3e828fce6a451706691f2820",
        "to": "0xac77b823b58873572937a01b3e0cb9c417cf637e",
        "gas": "0x2a473",
        "value": "0x0",
        "input": "0xb6b55f250000000000000000000000000000000000000000000000000000000005f5e100",
        "nonce": "0xf",
        "chainId": "0x507"
      },
      "additionalContracts": [],
      "isFixedGasLimit": false
    }
  ],
  "receipts": [
    {
      "status": "0x1",
      "cumulativeGasUsed": "0x17c80",
      "logs": [
        {
          "address": "0xe71eae89dd7b325d5998c82d48d71ff7a4c8e322",
          "topics": [
            "0x8c5be1e5ebec7d5bd14f71427d1e84f3dd0314c0f7b2291e5b200ac8c7c3b925",
            "0x000000000000000000000000081691e61060b24d3e828fce6a451706691f2820",
            "0x000000000000000000000000ac77b823b58873572937a01b3e0cb9c417cf637e"
          ],
          "data": "0x0000000000000000000000000000000000000000000000008ac7230489e80000",
          "blockHash": "0x4a706a48a0f6b8213d0f260233120f8a9f344d06a2d1e9d9901a3a9148504a59",
          "blockNumber": "0x9582e3",
          "transactionHash": "0x4f88fba7940f32fd844aa34e3b2c6efce2a23263ee32e7c32aa13a943388de5e",
          "transactionIndex": "0x0",
          "logIndex": "0x0",
          "removed": false
        }
      ],
      "logsBloom": "0x02000000000000000000000000000000000002000000000000000000000000000040000000000000000000000000000000000000000000000000000000200000000000000000000000000000000000000000000000000000000000000000000000000000000000000000000000000000000000000000000000000000000008000000080000000000000000800000000000000000000000000000000000000000020000000000000000000000000000000000000000000000000000800000000000000000000200000000000000000000000000000000000000000000000000000010000000000008000000000000000000000000000000000000000000000000",
      "type": "0x2",
      "transactionHash": "0x4f88fba7940f32fd844aa34e3b2c6efce2a23263ee32e7c32aa13a943388de5e",
      "transactionIndex": "0x0",
      "blockHash": "0x4a706a48a0f6b8213d0f260233120f8a9f344d06a2d1e9d9901a3a9148504a59",
      "blockNumber": "0x9582e3",
      "gasUsed": "0x17c80",
      "effectiveGasPrice": "0x27dc50b0",
      "from": "0x081691e61060b24d3e828fce6a451706691f2820",
      "to": "0xe71eae89dd7b325d5998c82d48d71ff7a4c8e322",
      "contractAddress": null
    },
    {
      "status": "0x1",
      "cumulativeGasUsed": "0x29720",
      "logs": [
        {
          "address": "0xe71eae89dd7b325d5998c82d48d71ff7a4c8e322",
          "topics": [
            "0xddf252ad1be2c89b69c2b068fc378daa952ba7f163c4a11628f55a4df523b3ef",
            "0x000000000000000000000000081691e61060b24d3e828fce6a451706691f2820",
            "0x000000000000000000000000ac77b823b58873572937a01b3e0cb9c417cf637e"
          ],
          "data": "0x0000000000000000000000000000000000000000000000008ac7230489e80000",
          "blockHash": "0x4ca4389f60c5a9fc17f6c4ec0dcd7bb57734bc6eeaf4624c9f5b5d454aa1f996",
          "blockNumber": "0x9582e7",
          "transactionHash": "0xe107eebc05a568d2f61a97c0bcc19d2222866d0a30dbba7bbb6cad5c6813ea2c",
          "transactionIndex": "0x0",
          "logIndex": "0x0",
          "removed": false
        },
        {
          "address": "0xac77b823b58873572937a01b3e0cb9c417cf637e",
          "topics": [
            "0xd7243f6f8212d5188fd054141cf6ea89cfc0d91facb8c3afe2f88a1358480142",
            "0x000000000000000000000000081691e61060b24d3e828fce6a451706691f2820"
          ],
          "data": "0x0000000000000000000000000000000000000000000000008ac7230489e80000",
          "blockHash": "0x4ca4389f60c5a9fc17f6c4ec0dcd7bb57734bc6eeaf4624c9f5b5d454aa1f996",
          "blockNumber": "0x9582e7",
          "transactionHash": "0xe107eebc05a568d2f61a97c0bcc19d2222866d0a30dbba7bbb6cad5c6813ea2c",
          "transactionIndex": "0x0",
          "logIndex": "0x1",
          "removed": false
        }
      ],
      "logsBloom": "0x02000000000000000000000000000000000002000000000000000000000000000040000000000000000000000000000000000000000000000000000000000000000000000000000000000008000000000000000000000000000000000000000000000000000000000000000000000000000000000000000000000010000008000000080000000000000000800000000000000000000000000000000000000000000000000000000000000000000000000000000000000000000000800020000000000012000201000000000000000000000000000040008000000000000000000000200000000008000000000000000000000000000000000000000000000000",
      "type": "0x2",
      "transactionHash": "0xe107eebc05a568d2f61a97c0bcc19d2222866d0a30dbba7bbb6cad5c6813ea2c",
      "transactionIndex": "0x0",
      "blockHash": "0x4ca4389f60c5a9fc17f6c4ec0dcd7bb57734bc6eeaf4624c9f5b5d454aa1f996",
      "blockNumber": "0x9582e7",
      "gasUsed": "0x29720",
      "effectiveGasPrice": "0x27dc50b0",
      "from": "0x081691e61060b24d3e828fce6a451706691f2820",
      "to": "0xac77b823b58873572937a01b3e0cb9c417cf637e",
      "contractAddress": null
    },
    {
      "status": "0x1",
      "cumulativeGasUsed": "0xb423",
      "logs": [
        {
          "address": "0xbe5d45a7c0709bab9e51337c991dabcb97c6d1ef",
          "topics": [
            "0x8c5be1e5ebec7d5bd14f71427d1e84f3dd0314c0f7b2291e5b200ac8c7c3b925",
            "0x000000000000000000000000081691e61060b24d3e828fce6a451706691f2820",
            "0x000000000000000000000000ac77b823b58873572937a01b3e0cb9c417cf637e"
          ],
          "data": "0x0000000000000000000000000000000000000000000000000000000005f5e100",
          "blockHash": "0x486daef0b4bb1d68d7c9d5b1e94426a9d644b0a7b69b452ac0fd57fbea0ec4f8",
          "blockNumber": "0x9582eb",
          "transactionHash": "0x65bd2e5b76e4f63381761a28a5f7246367f0507b0337a85620a3210cd66d470b",
          "transactionIndex": "0x0",
          "logIndex": "0x0",
          "removed": false
        }
      ],
      "logsBloom": "0x02000000000000000000000000000000000002000000000000000000000000000040000000000000000000000000000000000000000000000000000000200000200000000000000000000000000000000000000000000000000000000000000000000000000000000000000000000000000000000000000000000000000000000000080000000000000000000000000000000000000000000000000000000000020000000000000000000000000000000000000000000000000000800000000000000000000000000000000000000000000000000000008000000000000100000010000000000008000000000000000000000000000000000000000000000000",
      "type": "0x2",
      "transactionHash": "0x65bd2e5b76e4f63381761a28a5f7246367f0507b0337a85620a3210cd66d470b",
      "transactionIndex": "0x0",
      "blockHash": "0x486daef0b4bb1d68d7c9d5b1e94426a9d644b0a7b69b452ac0fd57fbea0ec4f8",
      "blockNumber": "0x9582eb",
      "gasUsed": "0xb423",
      "effectiveGasPrice": "0x27dc50b0",
      "from": "0x081691e61060b24d3e828fce6a451706691f2820",
      "to": "0xbe5d45a7c0709bab9e51337c991dabcb97c6d1ef",
      "contractAddress": null
    },
    {
      "status": "0x1",
      "cumulativeGasUsed": "0x29760",
      "logs": [
        {
          "address": "0xbe5d45a7c0709bab9e51337c991dabcb97c6d1ef",
          "topics": [
            "0xddf252ad1be2c89b69c2b068fc378daa952ba7f163c4a11628f55a4df523b3ef",
            "0x000000000000000000000000081691e61060b24d3e828fce6a451706691f2820",
            "0x000000000000000000000000ac77b823b58873572937a01b3e0cb9c417cf637e"
          ],
          "data": "0x0000000000000000000000000000000000000000000000000000000005f5e100",
          "blockHash": "0x0941670e151fc4cd877805437a957d08faf3e0deca799fb71f99a9c5c8774ba2",
          "blockNumber": "0x9582ef",
          "transactionHash": "0xad7bc3b87e33d96abe9d359fac40eebb6755ea1c58dfc3cb563f7be5e75bbd21",
          "transactionIndex": "0x0",
          "logIndex": "0x0",
          "removed": false
        },
        {
          "address": "0xac77b823b58873572937a01b3e0cb9c417cf637e",
          "topics": [
            "0x0b05f0d1cd0819f155b8a61f60baf7767c1ee49d04aeaab701df236140eb93f9",
            "0x000000000000000000000000081691e61060b24d3e828fce6a451706691f2820"
          ],
          "data": "0x0000000000000000000000000000000000000000000000000000000005f5e10000000000000000000000000000000000000000000000000000000000675523c2",
          "blockHash": "0x0941670e151fc4cd877805437a957d08faf3e0deca799fb71f99a9c5c8774ba2",
          "blockNumber": "0x9582ef",
          "transactionHash": "0xad7bc3b87e33d96abe9d359fac40eebb6755ea1c58dfc3cb563f7be5e75bbd21",
          "transactionIndex": "0x0",
          "logIndex": "0x1",
          "removed": false
        }
      ],
      "logsBloom": "0x02000000000000000000000000000000000002000000000000000000000000000040000000000000000000000000000000000000000000000000000000000000200000000000000000000008000000000000000000000000000000000000000000000000000000000000000000000000000000000000000000000010000000000400080000000000000000000000000000000000000000000000000000000000000000000000000000000000000000000000000000020000000000800020000000000002000001000000000000000000000000000200008000000000000100000000200000000008000000000000000000000000000000000000000000000000",
      "type": "0x2",
      "transactionHash": "0xad7bc3b87e33d96abe9d359fac40eebb6755ea1c58dfc3cb563f7be5e75bbd21",
      "transactionIndex": "0x0",
      "blockHash": "0x0941670e151fc4cd877805437a957d08faf3e0deca799fb71f99a9c5c8774ba2",
      "blockNumber": "0x9582ef",
      "gasUsed": "0x29760",
      "effectiveGasPrice": "0x27dc50b0",
      "from": "0x081691e61060b24d3e828fce6a451706691f2820",
      "to": "0xac77b823b58873572937a01b3e0cb9c417cf637e",
      "contractAddress": null
    }
  ],
  "libraries": [],
  "pending": [],
  "returns": {},
  "timestamp": 1733632981,
  "chain": 1287,
  "commit": "accdc3b"
}