{
  "transactions": [
    {
      "hash": "0x48c068a7a0aac75f74f293a836c134af7e7ad1363e90d82732a895819f680227",
      "transactionType": "CALL",
      "contractName": null,
      "contractAddress": "0x73e8e00646e7de7f135aae385a2102fd1637d59e",
      "function": "approve(address,uint256)",
      "arguments": [
        "0xe71EAE89Dd7B325d5998C82D48d71Ff7A4c8E322",
        "50000000000000000000"
      ],
      "transaction": {
        "from": "0x081691e61060b24d3e828fce6a451706691f2820",
        "to": "0x73e8e00646e7de7f135aae385a2102fd1637d59e",
        "gas": "0xed26",
        "value": "0x0",
        "input": "0x095ea7b3000000000000000000000000e71eae89dd7b325d5998c82d48d71ff7a4c8e322000000000000000000000000000000000000000000000002b5e3af16b1880000",
        "nonce": "0x8",
        "chainId": "0x507"
      },
      "additionalContracts": [],
      "isFixedGasLimit": false
    },
    {
      "hash": "0xb0fc285b302236838bbdff9443525874d1e533413a9851f8988afbf8f35177a2",
      "transactionType": "CALL",
      "contractName": null,
      "contractAddress": "0x58ccf12593d608d871ef447d3fec9d00f35e14e2",
      "function": "approve(address,uint256)",
      "arguments": [
        "0xe71EAE89Dd7B325d5998C82D48d71Ff7A4c8E322",
        "50000000000000000000"
      ],
      "transaction": {
        "from": "0x081691e61060b24d3e828fce6a451706691f2820",
        "to": "0x58ccf12593d608d871ef447d3fec9d00f35e14e2",
        "gas": "0xed26",
        "value": "0x0",
        "input": "0x095ea7b3000000000000000000000000e71eae89dd7b325d5998c82d48d71ff7a4c8e322000000000000000000000000000000000000000000000002b5e3af16b1880000",
        "nonce": "0x9",
        "chainId": "0x507"
      },
      "additionalContracts": [],
      "isFixedGasLimit": false
    },
    {
      "hash": "0xae78c20a5808da3ab9aa9c94238a3bf942caf78da019d6fe62ba22388c8811bf",
      "transactionType": "CALL",
      "contractName": null,
      "contractAddress": "0xe71eae89dd7b325d5998c82d48d71ff7a4c8e322",
      "function": "addLiquidity(uint256,uint256)",
      "arguments": [
        "50",
        "50"
      ],
      "transaction": {
        "from": "0x081691e61060b24d3e828fce6a451706691f2820",
        "to": "0xe71eae89dd7b325d5998c82d48d71ff7a4c8e322",
        "gas": "0x4277b",
        "value": "0x0",
        "input": "0x9cd441da00000000000000000000000000000000000000000000000000000000000000320000000000000000000000000000000000000000000000000000000000000032",
        "nonce": "0xa",
        "chainId": "0x507"
      },
      "additionalContracts": [],
      "isFixedGasLimit": false
    }
  ],
  "receipts": [
    {
      "status": "0x1",
      "cumulativeGasUsed": "0xb453",
      "logs": [
        {
          "address": "0x73e8e00646e7de7f135aae385a2102fd1637d59e",
          "topics": [
            "0x8c5be1e5ebec7d5bd14f71427d1e84f3dd0314c0f7b2291e5b200ac8c7c3b925",
            "0x000000000000000000000000081691e61060b24d3e828fce6a451706691f2820",
            "0x000000000000000000000000e71eae89dd7b325d5998c82d48d71ff7a4c8e322"
          ],
          "data": "0x000000000000000000000000000000000000000000000002b5e3af16b1880000",
          "blockHash": "0x8d7c159cfe1def901ae5075fb2d117e76c4985c1a61a67b6045dcbf06deaafb6",
          "blockNumber": "0x9582c3",
          "transactionHash": "0x48c068a7a0aac75f74f293a836c134af7e7ad1363e90d82732a895819f680227",
          "transactionIndex": "0x0",
          "logIndex": "0x0",
          "removed": false
        }
      ],
      "logsBloom": "0x00000000000000000000000000000000000002000000000000000000000000000000000001000000000000000000000000000000000000000000000000200000000000000000000000000000000000000000000000000000000000000000000000000000000000000000000000000000000000000000000000000000000000000000001000000000000000000000000000008000000000000000000000000000020000000008000000000000000000000000000000000000000000820000000000000000000000000000000200000000000000000000000000000000000000000010000000000008000000000000000000000000000000000000000000000000",
      "type": "0x2",
      "transactionHash": "0x48c068a7a0aac75f74f293a836c134af7e7ad1363e90d82732a895819f680227",
      "transactionIndex": "0x0",
      "blockHash": "0x8d7c159cfe1def901ae5075fb2d117e76c4985c1a61a67b6045dcbf06deaafb6",
      "blockNumber": "0x9582c3",
      "gasUsed": "0xb453",
      "effectiveGasPrice": "0x47868c00",
      "from": "0x081691e61060b24d3e828fce6a451706691f2820",
      "to": "0x73e8e00646e7de7f135aae385a2102fd1637d59e",
      "contractAddress": null
    },
    {
      "status": "0x1",
      "cumulativeGasUsed": "0xb453",
      "logs": [
        {
          "address": "0x58ccf12593d608d871ef447d3fec9d00f35e14e2",
          "topics": [
            "0x8c5be1e5ebec7d5bd14f71427d1e84f3dd0314c0f7b2291e5b200ac8c7c3b925",
            "0x000000000000000000000000081691e61060b24d3e828fce6a451706691f2820",
            "0x000000000000000000000000e71eae89dd7b325d5998c82d48d71ff7a4c8e322"
          ],
          "data": "0x000000000000000000000000000000000000000000000002b5e3af16b1880000",
          "blockHash": "0xf1f52d0638643e4ffa05034a5dcfb2f3bc709998181bd30e936e3c65e7ad2d60",
          "blockNumber": "0x9582c7",
          "transactionHash": "0xb0fc285b302236838bbdff9443525874d1e533413a9851f8988afbf8f35177a2",
          "transactionIndex": "0x0",
          "logIndex": "0x0",
          "removed": false
        }
      ],
      "logsBloom": "0x00000000000000000000000000000000000002000000000000000000000000000000000000000000000000000000000000000000000000000000000000200000000000000000000000000000000000000000000000000000000000000000000000000000000000000000000000000000000000000000000000000000000000000004001000000000000000000000000000008000000000000000004000000000020000000008000000000000000000000000000000000000000000800000000000000000000000000000000000000000000000000000000000000000000000000010000000000008000000000000000000000000000000000080000000000000",
      "type": "0x2",
      "transactionHash": "0xb0fc285b302236838bbdff9443525874d1e533413a9851f8988afbf8f35177a2",
      "transactionIndex": "0x0",
      "blockHash": "0xf1f52d0638643e4ffa05034a5dcfb2f3bc709998181bd30e936e3c65e7ad2d60",
      "blockNumber": "0x9582c7",
      "gasUsed": "0xb453",
      "effectiveGasPrice": "0x47868c00",
      "from": "0x081691e61060b24d3e828fce6a451706691f2820",
      "to": "0x58ccf12593d608d871ef447d3fec9d00f35e14e2",
      "contractAddress": null
    },
    {
      "status": "0x1",
      "cumulativeGasUsed": "0x3e310",
      "logs": [
        {
          "address": "0x73e8e00646e7de7f135aae385a2102fd1637d59e",
          "topics": [
            "0xddf252ad1be2c89b69c2b068fc378daa952ba7f163c4a11628f55a4df523b3ef",
            "0x000000000000000000000000081691e61060b24d3e828fce6a451706691f2820",
            "0x000000000000000000000000e71eae89dd7b325d5998c82d48d71ff7a4c8e322"
          ],
          "data": "0x000000000000000000000000000000000000000000000002b5e3af16b1880000",
          "blockHash": "0x0f34196f0d2724eda711f69be50fb947133186e2fbe7ab1b37b26a8cf816a60b",
          "blockNumber": "0x9582cb",
          "transactionHash": "0xae78c20a5808da3ab9aa9c94238a3bf942caf78da019d6fe62ba22388c8811bf",
          "transactionIndex": "0x0",
          "logIndex": "0x0",
          "removed": false
        },
        {
          "address": "0x58ccf12593d608d871ef447d3fec9d00f35e14e2",
          "topics": [
            "0xddf252ad1be2c89b69c2b068fc378daa952ba7f163c4a11628f55a4df523b3ef",
            "0x000000000000000000000000081691e61060b24d3e828fce6a451706691f2820",
            "0x000000000000000000000000e71eae89dd7b325d5998c82d48d71ff7a4c8e322"
          ],
          "data": "0x000000000000000000000000000000000000000000000002b5e3af16b1880000",
          "blockHash": "0x0f34196f0d2724eda711f69be50fb947133186e2fbe7ab1b37b26a8cf816a60b",
          "blockNumber": "0x9582cb",
          "transactionHash": "0xae78c20a5808da3ab9aa9c94238a3bf942caf78da019d6fe62ba22388c8811bf",
          "transactionIndex": "0x0",
          "logIndex": "0x1",
          "removed": false
        },
        {
          "address": "0xe71eae89dd7b325d5998c82d48d71ff7a4c8e322",
          "topics": [
            "0xddf252ad1be2c89b69c2b068fc378daa952ba7f163c4a11628f55a4df523b3ef",
            "0x0000000000000000000000000000000000000000000000000000000000000000",
            "0x000000000000000000000000081691e61060b24d3e828fce6a451706691f2820"
          ],
          "data": "0x0000000000000000000000000000000000000000000000056bc75e2d63100000",
          "blockHash": "0x0f34196f0d2724eda711f69be50fb947133186e2fbe7ab1b37b26a8cf816a60b",
          "blockNumber": "0x9582cb",
          "transactionHash": "0xae78c20a5808da3ab9aa9c94238a3bf942caf78da019d6fe62ba22388c8811bf",
          "transactionIndex": "0x0",
          "logIndex": "0x2",
          "removed": false
        },
        {
          "address": "0xe71eae89dd7b325d5998c82d48d71ff7a4c8e322",
          "topics": [
            "0x64b83944e79c3ce8d4c297411de637c3e102d064677aac0c163976ebdcd6f50e",
            "0x000000000000000000000000081691e61060b24d3e828fce6a451706691f2820"
          ],
          "data": "0x000000000000000000000000000000000000000000000000000000000000003200000000000000000000000000000000000000000000000000000000000000320000000000000000000000000000000000000000000000000000000000000064",
          "blockHash": "0x0f34196f0d2724eda711f69be50fb947133186e2fbe7ab1b37b26a8cf816a60b",
          "blockNumber": "0x9582cb",
          "transactionHash": "0xae78c20a5808da3ab9aa9c94238a3bf942caf78da019d6fe62ba22388c8811bf",
          "transactionIndex": "0x0",
          "logIndex": "0x3",
          "removed": false
        }
      ],
      "logsBloom": "0x00000000000000000000000000000000000002000000000000000000000000000000000001000000000000000000000000000000000000000000000000000000000001000000000000000008800000000000000000000000000000000000000000000000020000000000000000000800000000000000000000000010000008000004001000000000000000800000000000008000000000000000004000000000000000000008000000000000000000000000000000000000000000820000000000000002000200000000000200000000000000000000000000000000020020000000000000000008000000000000000000000000000000000080000000000000",
      "type": "0x2",
      "transactionHash": "0xae78c20a5808da3ab9aa9c94238a3bf942caf78da019d6fe62ba22388c8811bf",
      "transactionIndex": "0x0",
      "blockHash": "0x0f34196f0d2724eda711f69be50fb947133186e2fbe7ab1b37b26a8cf816a60b",
      "blockNumber": "0x9582cb",
      "gasUsed": "0x3e310",
      "effectiveGasPrice": "0x47868c00",
      "from": "0x081691e61060b24d3e828fce6a451706691f2820",
      "to": "0xe71eae89dd7b325d5998c82d48d71ff7a4c8e322",
      "contractAddress": null
    }
  ],
  "libraries": [],
  "pending": [],
  "returns": {},
  "timestamp": 1733632767,
  "chain": 1287,
  "commit": "accdc3b"
}